:100000000C9452010C947A010C947A010C947A01AC
:100010000C947A010C947A010C947A010C947A0174
:100020000C947A010C947A010C947A010C947A0164
:100030000C947A010C947A010C947A010C947A0154
:100040000C94DD050C947A010C944D060C94270653
:100050000C947A010C947A010C947A010C947A0134
:100060000C947A010C947A01000000000000005FFB
:1000700000000007000700147F147F14242A7F2A41
:10008000122313086462364955225000050300000C
:10009000001C2241000041221C0014083E081408E4
:1000A000083E0808005030000008080808080060F2
:1000B00060000020100804023E5149453E00427F86
:1000C000400042615149462141454B311814127F8D
:1000D0001027454545393C4A494930017109050316
:1000E0003649494936064949291E0036360000007E
:1000F0005636000008142241001414141414004150
:100100002214080201510906324979413E7E11113B
:10011000117E7F494949363E414141227F4141227A
:100120001C7F494949417F090909013E4149497AF2
:100130007F0808087F00417F41002040413F017F48
:10014000081422417F404040407F020C027F7F0420
:1001500008107F3E4141413E7F090909063E415159
:10016000215E7F09192946464949493101017F012C
:10017000013F4040403F1F2040201F3F4038403F4C
:100180006314081463070870080761514945430068
:100190007F41410002040810200041417F00040219
:1001A0000102044040404040000102040020545439
:1001B00054787F48444438384444442038444448C0
:1001C0007F3854545418087E0901020C5252523E92
:1001D0007F0804047800447D40002040443D007FB7
:1001E0001028440000417F40007C041804787C08FB
:1001F00004047838444444387C1414140808141453
:10020000187C7C080404084854545420043F44409B
:10021000203C4040207C1C2040201C3C4030403C86
:1002200044281028440C5050503C4464544C440022
:100230000836410000007F00000041360800100829
:100240000810080000000000000000002400270043
:100250002A0000000000250028002B0000000000FC
:1002600023002600290004040404040404040202F8
:100270000202020203030303030301020408102025
:100280004080010204081020010204081020000030
:100290000008000201000003040700000000000045
:1002A00000007F0611241FBECFEFD8E0DEBFCDBF18
:1002B00011E0A0E0B1E0EAECFDE102C005900D9292
:1002C000A03CB107D9F722E0A0ECB1E001C01D923B
:1002D000A93DB207E1F711E0C2E5D1E004C02197E2
:1002E000FE010E94DD0EC135D107C9F70E94BF068D
:1002F0000C94E30E0C940000833081F028F48130DC
:1003000099F08230A9F008958730A9F08830C9F0BB
:100310008430B1F4809180008F7D03C08091800093
:100320008F7780938000089584B58F7784BD08957A
:1003300084B58F7DFBCF8091B0008F778093B00024
:1003400008958091B0008F7DF9CFCF93DF93282F50
:1003500030E0F901E257FD4F8491F901E658FD4F75
:10036000D491F901EA59FD4FC491CC23A1F0811138
:100370000E947C01EC2FF0E0EE0FFF1FE45AFD4FCE
:10038000A591B491EC91ED2381E090E009F480E037
:10039000DF91CF91089580E090E0FACF1F93CF9343
:1003A000DF93282F30E0F901E257FD4F8491F901E6
:1003B000E658FD4FD491F901EA59FD4FC491CC2381
:1003C000A9F0162F81110E947C01EC2FF0E0EE0FB6
:1003D000FF1FEE5AFD4FA591B4918FB7F894EC91A1
:1003E000111108C0D095DE23DC938FBFDF91CF9130
:1003F0001F910895DE2BF8CFCF93DF9390E0FC019F
:10040000E658FD4F24918A599D4FFC018491882321
:10041000D1F090E0880F991FFC01E85BFD4FA5919A
:10042000B491FC01EE5AFD4FC591D49161110EC0FB
:100430009FB7F8948C91E22FE0958E238C932881BE
:10044000E223E8839FBFDF91CF9108958FB7F8949F
:10045000EC91E22BEC938FBFF6CF8E3008F08E50EC
:100460008770806480937C0080917A0080648093A0
:100470007A0080917A0086FDFCCF8091780090917F
:10048000790008953FB7F8948091E9019091EA01CD
:10049000A091EB01B091EC0126B5A89B05C02F3FC0
:1004A00019F00196A11DB11D3FBFBA2FA92F982F9A
:1004B0008827BC01CD01620F711D811D911D42E095
:1004C000660F771F881F991F4A95D1F708958F925D
:1004D0009F92AF92BF92CF92DF92EF92FF924B0129
:1004E0005C010E9442026B017C010E9442026C1975
:1004F0007D098E099F09683E734081059105A8F327
:1005000021E0821A9108A108B10888EEC80E83E0A4
:10051000D81EE11CF11C81149104A104B10429F737
:10052000FF90EF90DF90CF90BF90AF909F908F9013
:100530000895AF92BF92CF92DF92EF92FF920F9306
:100540001F93CF93DF936C017B018B01040F151F69
:10055000EB015E01AE18BF08C017D10759F06991D1
:10056000D601ED91FC910190F081E02DC601099535
:10057000892B79F7C501DF91CF911F910F91FF90E2
:10058000EF90DF90CF90BF90AF900895FC01538D16
:10059000448D252F30E0842F90E0821B930B54175D
:1005A00010F0CF96089501970895FC01918D828DEA
:1005B000981761F0A28DAE0FBF2FB11D5D968C9183
:1005C000928D9F5F9F73928F90E008958FEF9FEFC2
:1005D0000895FC01918D828D981731F0828DE80F7E
:1005E000F11D858D90E008958FEF9FEF0895FC0138
:1005F000918D228D892F90E0805C9F4F821B910905
:100600008F73992708958DEE91E00E94F70221E003
:10061000892B09F420E0822F089580E090E0892B57
:1006200029F00E94030381110C9400000895FC013D
:10063000A48DA80FB92FB11DA35ABF4F2C91848D43
:1006400090E001968F739927848FA689B7892C93A0
:10065000A089B1898C91837080648C93938D848DF3
:10066000981306C00288F389E02D80818F7D8083F6
:100670000895EF92FF920F931F93CF93DF93EC01B6
:1006800081E0888F9B8D8C8D98131AC0E889F98939
:10069000808185FF15C09FB7F894EE89FF8960833C
:1006A000E889F98980818370806480839FBF81E0BD
:1006B00090E0DF91CF911F910F91FF90EF900895FF
:1006C000F62E0B8D10E00F5F1F4F0F731127E02EDA
:1006D0008C8D8E110CC00FB607FCFACFE889F98912
:1006E000808185FFF5CFCE010E941703F1CFEB8DFE
:1006F000EC0FFD2FF11DE35AFF4FF0829FB7F894E6
:100700000B8FEA89FB8980818062CFCFCF93DF9303
:10071000EC01888D8823B9F0AA89BB89E889F98919
:100720008C9185FD03C0808186FD0DC00FB607FC4E
:10073000F7CF8C9185FFF2CF808185FFEDCFCE0181
:100740000E941703E9CFDF91CF910895089590E0BB
:1007500080E00895FB0101900020E9F73197AF0197
:10076000461B570BDC01ED91FC910280F381E02DDB
:1007700009948F929F92AF92BF92EF92FF920F9344
:100780001F93CF93DF93CDB7DEB7A1970FB6F89441
:10079000DEBF0FBECDBF7C01FA01CB0119A2223012
:1007A00008F42AE08E010F5D1F4F822E912CB12C90
:1007B000A12CBF01A50194010E94A70EF901CA0155
:1007C0006A300CF5605DD8016E938D01232B242BCC
:1007D000252B79F790E080E0109721F0BD01C7014B
:1007E0000E94AA03A1960FB6F894DEBF0FBECDBF3C
:1007F000DF91CF911F910F91FF90EF90BF90AF903D
:100800009F908F900895695CDECF0C94AA032F927D
:100810003F924F925F926F927F928F929F92AF9290
:10082000BF92CF92DF92EF92FF921F93CF93DF930D
:10083000EC016A017B01722EAB019601CB01B6017E
:100840000E94820E6EE171E0811126C046015701BF
:10085000E894B7F82FEF3FEF4FE75FE7C501B4012A
:100860000E94820E81110CC02FEF3FEF4FE75FE730
:10087000C501B4010E94B80C62E271E0181664F080
:100880002FEF3FEF4FE75FE4C701B6010E94100E64
:100890001816B4F466E271E0CE01DF91CF911F919A
:1008A000FF90EF90DF90CF90BF90AF909F908F9090
:1008B0007F906F905F904F903F902F900C94AA0381
:1008C0002FEF3FEF4FE75FECC701B6010E94B80C76
:1008D00087FDE0CF20E030E0A901C701B6010E940A
:1008E000B80C312C212C87FF0DC0E881F9810190D3
:1008F000F081E02D6DE2CE0109951C01F7FAF0942C
:10090000F7F8F09410E060E070E080E09FE371168B
:1009100041F020E030E040E251E40E94BD0C1F5F56
:10092000F6CFA70196010E944C0C2B013C010E94BE
:100930002F0D4B015C012AE0BC01A401CE010E94F5
:10094000B9037C01E20CF31C1123E1F1C501B401F0
:100950000E945E0D9B01AC01C301B2010E944B0CD1
:100960004B015C01E881F9810190F081E02D6EE29C
:10097000CE010995E80EF91E115020F120E030E07B
:1009800040E251E4C501B4010E94150E2B013C0167
:100990000E942F0D4B01B12CA12C2AE0B501A4011E
:1009A000CE010E94B903E80EF91EC501B4010E94F0
:1009B0005E0D9B01AC01C301B2010E944B0C4B01C7
:1009C0005C01DACFC701DF91CF911F91FF90EF90CB
:1009D000DF90CF90BF90AF909F908F907F906F905F
:1009E0005F904F903F902F900895CF93DF93AB018E
:1009F000BC0122E08DEE91E00E940704EC016AE266
:100A000071E08DEE91E00E94AA038C0F9D1FDF9193
:100A1000CF91089522E00C940704EF92FF920F9378
:100A20001F93CF93DF93EC01042F8E810E94CE01A0
:100A300060E088850E94CE01FC80ED8018E0602F88
:100A4000661F6627661F8E2D0E94CE01000F61E093
:100A50008F2D0E94CE0160E08F2D0E94CE0111509B
:100A600071F761E08885DF91CF911F910F91FF9021
:100A7000EF900C94CE01CF93DF93262FCAE8D2E0FB
:100A80006A850E94870E492F9C87822F90E06B8594
:100A900029E3629F612D1124669570E06F5F7F4F9F
:100AA0000E94930E8D87406860E0CE010E940D0584
:100AB0004D85406460E0CE01DF91CF910C940D052F
:100AC000CF92DF92EF92FF920F931F93CF93DF931A
:100AD00000D000D01F92CDB7DEB767FD6BC07C01A0
:100AE000862F90E0603208F455C0809725E0289F5B
:100AF000B001299F700D112468597F4F45E050E0E7
:100B0000CE0101960E94420C8E010F5F1F4F6801BB
:100B100085E0C80ED11CF80141918F01F70186854F
:100B20008111409561E0C7010E940D050C151D055E
:100B300091F7F7014685419561E0C7010E940D05D7
:100B4000F701848590E00696628570E00E94930E1E
:100B50008487892B79F4858590E00196638529E364
:100B6000629F612D1124669570E06F5F7F4F0E9438
:100B7000930E858781E090E00F900F900F900F907B
:100B80000F90DF91CF911F910F91FF90EF90DF9029
:100B9000CF900895880F991FF701E80FF91F078577
:100BA00010890115110509F0B2CF45E050E068E663
:100BB00070E0A6CF90E080E0DFCF1F920F920FB6DB
:100BC0000F9211242F933F938F939F93AF93BF93D3
:100BD0008091E5019091E601A091E701B091E801D3
:100BE0003091E40123E0230F2D3758F50196A11D24
:100BF000B11D2093E4018093E5019093E601A09359
:100C0000E701B093E8018091E9019091EA01A09198
:100C1000EB01B091EC010196A11DB11D8093E9019A
:100C20009093EA01A093EB01B093EC01BF91AF91D7
:100C30009F918F913F912F910F900FBE0F901F901A
:100C4000189526E8230F0296A11DB11DD2CF1F9241
:100C50000F920FB60F9211242F933F934F935F93F0
:100C60006F937F938F939F93AF93BF93EF93FF9374
:100C70008DEE91E00E941703FF91EF91BF91AF912C
:100C80009F918F917F916F915F914F913F912F91A4
:100C90000F900FBE0F901F9018951F920F920FB6D6
:100CA0000F9211242F938F939F93EF93FF93E091D3
:100CB000FD01F091FE018081E0910302F0910402B8
:100CC00082FD1BC09081809106028F5F8F732091FF
:100CD0000702821741F0E0910602F0E0E351FE4F77
:100CE000958F80930602FF91EF919F918F912F91A5
:100CF0000F900FBE0F901F9018958081F4CFEDEEEE
:100D0000F1E01382128288EE93E0A0E0B0E08483E9
:100D10009583A683B78384E091E09183808385ECFB
:100D200090E09587848784EC90E09787868780ECB5
:100D300090E0918B808B81EC90E0938B828B82ECA6
:100D400090E0958B848B86EC90E0978B868B118E50
:100D5000128E138E148EEAE8F2E01382128286E17C
:100D600091E09183808383E0848384E0858385E0C0
:100D7000868386E0878387E0808716860895789447
:100D800084B5826084BD84B5816084BD85B5826090
:100D900085BD85B5816085BD80916E008160809341
:100DA0006E001092810080918100826080938100AA
:100DB00080918100816080938100809180008160BA
:100DC000809380008091B10084608093B100809115
:100DD000B00081608093B00080917A00846080933D
:100DE0007A0080917A00826080937A0080917A0004
:100DF000816080937A0080917A00806880937A0085
:100E00001092C10060E083E00E94FC0160E082E09B
:100E10000E94FC0160E081E00E94FC0160E080E053
:100E20000E94FC0160E088E00E94FC0160E089E033
:100E30000E94FC0160E08AE00E94FC0160E08BE01F
:100E40000E94FC0184E58093940280E380939502E4
:100E5000109293021092960210929702E9E9F2E042
:100E600080E4DF011D928A95E9F761E080918E02AE
:100E70000E94FC0161E080918F020E94FC0161E010
:100E8000809190020E94FC0161E0809191020E9499
:100E9000FC0161E0809192020E94FC0161E080917E
:100EA00091020E94CE0161E0809192020E94CE01E7
:100EB00060E0809191020E94CE0164E670E080E0E3
:100EC00090E00E94670261E0809191020E94CE0151
:100ED00041E260E08AE892E00E940D0543E160E0B3
:100EE0008AE892E00E940D058091930242EC8130E5
:100EF00039F440EE60E08AE892E00E940D0545E09A
:100F000060E08AE892E00E940D0540E260E08AE835
:100F100092E00E940D0549E060E08AE892E00E94BC
:100F20000D0560E080E00E943B05D0E0C0E08091CC
:100F3000950286958695869590919402899FC00129
:100F40001124C817D90740F440E061E08AE892E034
:100F50000E940D052196EBCF60E080E00E943B05EA
:100F600048E060E08AE892E00E940D054CE060E015
:100F70008AE892E00E940D0564E670E080E090E06F
:100F80000E94670240E860E08AE892E00E940D0556
:100F900040E460E08AE892E00E940D056DE271E0B5
:100FA0008AE892E00E94050461E08FE00E943B0520
:100FB00068E371E08AE892E00E94050461E08CE059
:100FC0000E94FC0161E08DE00E94FC0161E082E191
:100FD0000E94FC0161E083E10E94FC01E091FD01BF
:100FE000F091FE0182E08083E091F901F091FA0135
:100FF0001082E091FB01F091FC018FEC8083109254
:101000000502E0910102F091020286E08083E09106
:10101000FF01F0910002808180618083E091FF01F7
:10102000F0910002808188608083E091FF01F0915F
:101030000002808180688083E091FF01F0910002CE
:1010400080818F7D808360E082E00E94FC01C0E0AF
:10105000D0E088E00E94A501182F8093E30182E090
:101060000E94A5015C0183E00E942D02BC01990F42
:10107000880B990B0E94600D29EC36E740EA50E49A
:101080000E94150E20E030E040E85AE30E94150E61
:101090002BEA3AEA4AE25EE30E94BD0C6B017C0156
:1010A000C092DF01D092E001E092E101F092E20112
:1010B000AB2809F06DC211118DC120E030E040EC89
:1010C00051E40E94100E61E018160CF060E08CE014
:1010D0000E94CE0162E08CE00E943B0562E471E078
:1010E0008AE892E00E9405044091DF015091E001FE
:1010F0006091E1017091E2018AE892E00E940A05A4
:1011000068E471E08DEE91E00E9405046091DF01DA
:101110007091E0018091E1019091E2010E94F5045B
:1011200060E971E080E090E00E94670289E00E943F
:10113000A501182F8093DA0182E00E94A5015C01CD
:1011400082E00E942D02BC01990F880B990B0E942E
:10115000600D29EC36E740EA50E40E94150E20E0CD
:1011600030E040E85AE30E94150E2BEA3AEA4AE2E0
:101170005EE30E94BD0C6B017C01C092D601D0924F
:10118000D701E092D801F092D901AB2809F048C20A
:10119000111157C120E030E040EC51E40E94100EE4
:1011A00061E018160CF060E08DE00E94CE0163E073
:1011B0008CE00E943B0564E571E08AE892E00E94C1
:1011C00005044091D6015091D7016091D8017091EA
:1011D000D9018AE892E00E940A0569E571E08DEE86
:1011E00091E00E9405046091D6017091D701809131
:1011F000D8019091D9010E94F50460E971E080E086
:1012000090E00E9467028AE00E94A501182F809357
:10121000D10182E00E94A5015C0181E00E942D02C3
:10122000BC01990F880B990B0E94600D29EC36E7E1
:1012300040EA50E40E94150E20E030E040E85AE316
:101240000E94150E2BEA3AEA4AE25EE30E94BD0CC8
:101250006B017C01C092CD01D092CE01E092CF0112
:10126000F092D001AB2809F024C2111121C120E075
:1012700030E040EC51E40E94100E61E018160CF0D2
:1012800060E082E10E94CE0164E08CE00E943B05B8
:1012900065E671E08AE892E00E9405044091CD0184
:1012A0005091CE016091CF017091D0018AE892E017
:1012B0000E940A056AE671E08DEE91E00E94050445
:1012C0006091CD017091CE018091CF019091D001BC
:1012D0000E94F50460E971E080E090E00E946702FE
:1012E0008BE00E94A501182F8093C80182E00E9424
:1012F000A5015C0180E00E942D02BC01990F880BC2
:10130000990B0E94600D29EC36E740EA50E40E94F8
:10131000150E20E030E040E85AE30E94150E2BEA5B
:101320003AEA4AE25EE30E94BD0C6B017C01C09286
:10133000C401D092C501E092C601F092C701AB286A
:1013400009F000C21111EBC020E030E040EC51E4A4
:101350000E94100E61E018160CF060E083E10E941C
:10136000CE0165E08CE00E943B0566E771E08AE80B
:1013700092E00E9405044091C4015091C501609122
:10138000C6017091C7018AE892E00E940A056BE7E6
:1013900071E08DEE91E00E9405044091C4015091EE
:1013A000C5016091C6017091C7018DEE91E00E9468
:1013B0000A0560E971E080E090E00E9467022097F2
:1013C00009F447CE0E940303882309F442CE0E9409
:1013D00000003FCE113009F0A9CE20E030E040EC13
:1013E00051E40E94100E61E018160CF060E08CE0F1
:1013F0000E94CE0162E08CE00E943B0568E471E04F
:101400008AE892E00E9405044091DF015091E001DA
:101410006091E1017091E20170588AE892E00E94C7
:101420000A0568E471E08DEE91E00E940504609188
:10143000DF017091E0018091E1019091E20190580B
:101440006DCE113009F0DFCE20E030E040EC51E409
:101450000E94100E61E018160CF060E08DE00E9412
:10146000CE0163E08CE00E943B0569E571E08AE80B
:1014700092E00E9405044091D6015091D7016091FD
:10148000D8017091D90170588AE892E00E940A054B
:1014900069E571E08DEE91E00E9405046091D6014E
:1014A0007091D7018091D8019091D9019058A3CE25
:1014B000113009F015CF20E030E040EC51E40E94FB
:1014C000100E61E018160CF060E082E10E94CE017F
:1014D00064E08CE00E943B056AE671E08AE892E0F5
:1014E0000E9405044091CD015091CE016091CF0141
:1014F0007091D00170588AE892E00E940A056AE66D
:1015000071E08DEE91E00E9405046091CD01709133
:10151000CE018091CF019091D0019058D9CE113059
:1015200009F04DCF20E030E040EC51E40E94100E75
:1015300061E018160CF060E083E10E94CE0165E0E6
:101540008CE00E943B056BE771E08AE892E00E9424
:1015500005044091C4015091C5016091C60170918C
:10156000C70170588AE892E00E940A056BE771E0B3
:101570008DEE91E00E9405046091C4017091C50157
:101580008091C6019091C70190580E94F50411CF37
:101590002091DB013091DC014091DD015091DE01B1
:1015A0000E94100E1816ECF4C092DB01D092DC0100
:1015B000E092DD01F092DE0124EF3DEF44E35FE3D2
:1015C000C701B6010E94150E20E030E048E851E462
:1015D0000E94100E61E018160CF060E08CE00E9492
:1015E000CE0162E08CE00E943B056CE471E08AE889
:1015F00092E00E94050421E834E045E35FE3609156
:10160000DB017091DC018091DD019091DE010E948F
:10161000150EAB01BC018AE892E00E940A0586CD56
:101620002091D2013091D3014091D4015091D50144
:101630000E94100E18160CF0E6CDC092D201D09286
:10164000D301E092D401F092D50121E834E045E3E2
:101650005FE3C701B6010E94150E20E030E048E8C4
:1016600051E40E94100E61E018160CF060E08DE06D
:101670000E94CE0163E08CE00E943B056DE571E0C5
:101680008AE892E00E94050421E834E045E35FE344
:101690006091D2017091D3018091D4019091D501D4
:1016A0000E94150EAB01BC018AE892E00E940A0577
:1016B000AACD2091C9013091CA014091CB0150912E
:1016C000CC010E94100E18160CF00ACEC092C9016F
:1016D000D092CA01E092CB01F092CC0121E834E033
:1016E00045E35FE3C701B6010E94150E20E030E03C
:1016F00048E851E40E94100E61E018160CF060E01A
:1017000082E10E94CE0164E08CE00E943B056EE61F
:1017100071E08AE892E00E94050421E834E045E3A4
:101720005FE36091C9017091CA018091CB019091F2
:10173000CC010E94150EAB01BC018AE892E00E9428
:101740000A05CECD2091C0013091C1014091C20166
:101750005091C3010E94100E1816ECF4C092C00103
:10176000D092C101E092C201F092C30121E834E0BD
:1017700045E35FE3C701B6010E94150E20E030E0AB
:1017800048E851E40E94100E61E018160CF060E089
:1017900083E10E94CE0165E08CE00E943B056FE78B
:1017A00071E08AE892E00E94050421E834E045E314
:1017B0005FE36091C0017091C1018091C20190917D
:1017C000C3010E94150EAB01BC018AE892E00E94A1
:1017D0000A0567E871E08DEE91E00E94050424EFB0
:1017E0003DEF44E35FE36091DB017091DC018091A8
:1017F000DD019091DE010E94150E0E94F50465E95D
:1018000071E08DEE91E00E94050424EF3DEF44E38A
:101810005FE36091D2017091D3018091D4019091E6
:10182000D5010E94150E0E94F50463EA71E08DEE69
:1018300091E00E94050424EF3DEF44E35FE36091F3
:10184000C9017091CA018091CB019091CC010E9495
:10185000150E0E94F50461EB71E08DEE91E00E949F
:10186000050424EF3DEF44E35FE36091C001709114
:10187000C1018091C2019091C3010E94150E0E9486
:10188000F5049DCDFB01DC0102C005900D92415095
:101890005040D8F708955058BB27AA270E94630CE0
:1018A0000C94D60D0E94C80D38F00E94CF0D20F088
:1018B00039F49F3F19F426F40C94C50D0EF4E0950D
:1018C000E7FB0C94BF0DE92F0E94E70D58F3BA1700
:1018D000620773078407950720F079F4A6F50C9446
:1018E000090E0EF4E0950B2EBA2FA02D0B01B901B5
:1018F00090010C01CA01A0011124FF27591B99F086
:10190000593F50F4503E68F11A16F040A22F232F91
:10191000342F4427585FF3CF469537952795A795E1
:10192000F0405395C9F77EF41F16BA0B620B730B88
:10193000840BBAF09150A1F0FF0FBB1F661F771FF9
:10194000881FC2F70EC0BA0F621F731F841F48F4AE
:10195000879577956795B795F7959E3F08F0B0CF37
:101960009395880F08F09927EE0F9795879508951E
:101970000E949B0D08F481E008950E94D10C0C9404
:10198000D60D0E94CF0D58F00E94C80D40F029F4EA
:101990005F3F29F00C94BF0D51110C940A0E0C946A
:1019A000C50D0E94E70D68F39923B1F3552391F318
:1019B000951B550BBB27AA2762177307840738F0BE
:1019C0009F5F5F4F220F331F441FAA1FA9F335D01B
:1019D0000E2E3AF0E0E832D091505040E695001CCF
:1019E000CAF72BD0FE2F29D0660F771F881FBB1F89
:1019F000261737074807AB07B0E809F0BB0B802D67
:101A0000BF01FF2793585F4F3AF09E3F510578F092
:101A10000C94BF0D0C940A0E5F3FE4F3983ED4F390
:101A2000869577956795B795F7959F5FC9F7880F66
:101A3000911D9695879597F90895E1E0660F771FB8
:101A4000881FBB1F621773078407BA0720F0621B49
:101A5000730B840BBA0BEE1F88F7E09508950E9474
:101A6000EF0D88F09F5798F0B92F9927B751B0F034
:101A7000E1F0660F771F881F991F1AF0BA95C9F712
:101A800014C0B13091F00E94090EB1E008950C9499
:101A9000090E672F782F8827B85F39F0B93FCCF34C
:101AA000869577956795B395D9F73EF4909580958F
:101AB000709561957F4F8F4F9F4F0895E89409C0AF
:101AC00097FB3EF490958095709561957F4F8F4F71
:101AD0009F4F9923A9F0F92F96E9BB279395F69587
:101AE000879577956795B795F111F8CFFAF4BB0F05
:101AF00011F460FF1BC06F5F7F4F8F4F9F4F16C069
:101B0000882311F096E911C0772321F09EE8872FF2
:101B1000762F05C0662371F096E8862F70E060E0AE
:101B20002AF09A95660F771F881FDAF7880F969527
:101B3000879597F90895990F0008550FAA0BE0E8CB
:101B4000FEEF16161706E807F907C0F0121613067F
:101B5000E407F50798F0621B730B840B950B39F4BF
:101B60000A2661F0232B242B252B21F408950A2625
:101B700009F4A140A6958FEF811D811D089597F965
:101B80009F6780E870E060E008959FEF80EC089523
:101B900000240A941616170618060906089500244C
:101BA0000A9412161306140605060895092E0394C6
:101BB000000C11F4882352F0BB0F40F4BF2B11F43A
:101BC00060FF04C06F5F7F4F8F4F9F4F089557FD99
:101BD0009058440F551F59F05F3F71F04795880F9B
:101BE00097FB991F61F09F3F79F087950895121632
:101BF00013061406551FF2CF4695F1DF08C01616DE
:101C000017061806991FF1CF86957105610508948E
:101C10000895E894BB2766277727CB0197F90895A5
:101C20000E949B0D08F48FEF08950E94280E0C94DB
:101C3000D60D0E94C80D38F00E94CF0D20F09523DC
:101C400011F00C94BF0D0C94C50D11240C940A0EC8
:101C50000E94E70D70F3959FC1F3950F50E0551F5B
:101C6000629FF001729FBB27F00DB11D639FAA27F1
:101C7000F00DB11DAA1F649F6627B00DA11D661F40
:101C8000829F2227B00DA11D621F739FB00DA11D61
:101C9000621F839FA00D611D221F749F3327A00D1B
:101CA000611D231F849F600D211D822F762F6A2FB7
:101CB00011249F5750409AF0F1F088234AF0EE0F1C
:101CC000FF1FBB1F661F771F881F91505040A9F749
:101CD0009E3F510580F00C94BF0D0C940A0E5F3F9F
:101CE000E4F3983ED4F3869577956795B795F79585
:101CF000E7959F5FC1F7FE2B880F911D96958795FD
:101D000097F908950E949B0D880B990B0895991BD4
:101D100079E004C0991F961708F0961B881F7A95E2
:101D2000C9F78095089597FB072E16F4009407D005
:101D300077FD09D00E94C90E07FC05D03EF49095AE
:101D400081959F4F0895709561957F4F0895A1E209
:101D50001A2EAA1BBB1BFD010DC0AA1FBB1FEE1F25
:101D6000FF1FA217B307E407F50720F0A21BB30B70
:101D7000E40BF50B661F771F881F991F1A9469F7EC
:101D800060957095809590959B01AC01BD01CF0148
:101D90000895AA1BBB1B51E107C0AA1FBB1FA617B2
:101DA000B70710F0A61BB70B881F991F5A95A9F704
:101DB00080959095BC01CD010895EE0FFF1F059011
:0A1DC000F491E02D0994F894FFCF90
:101DCA000000000039039902C6028603F702D50211
:101DDA00E9020000000060059902A703A6036E61EC
:101DEA006E00696E66006F7666000D0A00566F6CAB
:101DFA0074696D6574726F0043616E616C657320FE
:101E0A0034005631203D20005631200056312052F0
:101E1A004D533A0056323D200056322000563220A9
:101E2A00524D533A0056333D200056332000563364
:101E3A0020524D533A0056343D2000563420005665
:101E4A003420726D733A0056726D732043616E616D
:101E5A006C2031200056726D732043616E616C20D4
:101E6A0032200056726D732043616E616C203320FC
:101E7A000056726D732043616E616C20342000003D
:00000001FF
