:100000000C9452010C947A010C947A010C947A01AC
:100010000C947A010C947A010C947A010C947A0174
:100020000C947A010C947A010C947A010C947A0164
:100030000C947A010C947A010C947A010C947A0154
:100040000C94DD050C947A010C944D060C94270653
:100050000C947A010C947A010C947A010C947A0134
:100060000C947A010C947A01000000000000005FFB
:1000700000000007000700147F147F14242A7F2A41
:10008000122313086462364955225000050300000C
:10009000001C2241000041221C0014083E081408E4
:1000A000083E0808005030000008080808080060F2
:1000B00060000020100804023E5149453E00427F86
:1000C000400042615149462141454B311814127F8D
:1000D0001027454545393C4A494930017109050316
:1000E0003649494936064949291E0036360000007E
:1000F0005636000008142241001414141414004150
:100100002214080201510906324979413E7E11113B
:10011000117E7F494949363E414141227F4141227A
:100120001C7F494949417F090909013E4149497AF2
:100130007F0808087F00417F41002040413F017F48
:10014000081422417F404040407F020C027F7F0420
:1001500008107F3E4141413E7F090909063E415159
:10016000215E7F09192946464949493101017F012C
:10017000013F4040403F1F2040201F3F4038403F4C
:100180006314081463070870080761514945430068
:100190007F41410002040810200041417F00040219
:1001A0000102044040404040000102040020545439
:1001B00054787F48444438384444442038444448C0
:1001C0007F3854545418087E0901020C5252523E92
:1001D0007F0804047800447D40002040443D007FB7
:1001E0001028440000417F40007C041804787C08FB
:1001F00004047838444444387C1414140808141453
:10020000187C7C080404084854545420043F44409B
:10021000203C4040207C1C2040201C3C4030403C86
:1002200044281028440C5050503C4464544C440022
:100230000836410000007F00000041360800100829
:100240000810080000000000000000002400270043
:100250002A0000000000250028002B0000000000FC
:1002600023002600290004040404040404040202F8
:100270000202020203030303030301020408102025
:100280004080010204081020010204081020000030
:100290000008000201000003040700000000000045
:1002A00000007F0611241FBECFEFD8E0DEBFCDBF18
:1002B00011E0A0E0B1E0E6EEFDE102C005900D9294
:1002C000A43AB107D9F722E0A4EAB1E001C01D9237
:1002D000AD3BB207E1F711E0C2E5D1E004C02197E0
:1002E000FE010E94EB0EC135D107C9F70E94BF067F
:1002F0000C94F10E0C940000833081F028F48130CE
:1003000099F08230A9F008958730A9F08830C9F0BB
:100310008430B1F4809180008F7D03C08091800093
:100320008F7780938000089584B58F7784BD08957A
:1003300084B58F7DFBCF8091B0008F778093B00024
:1003400008958091B0008F7DF9CFCF93DF93282F50
:1003500030E0F901E257FD4F8491F901E658FD4F75
:10036000D491F901EA59FD4FC491CC23A1F0811138
:100370000E947C01EC2FF0E0EE0FFF1FE45AFD4FCE
:10038000A591B491EC91ED2381E090E009F480E037
:10039000DF91CF91089580E090E0FACF1F93CF9343
:1003A000DF93282F30E0F901E257FD4F8491F901E6
:1003B000E658FD4FD491F901EA59FD4FC491CC2381
:1003C000A9F0162F81110E947C01EC2FF0E0EE0FB6
:1003D000FF1FEE5AFD4FA591B4918FB7F894EC91A1
:1003E000111108C0D095DE23DC938FBFDF91CF9130
:1003F0001F910895DE2BF8CFCF93DF9390E0FC019F
:10040000E658FD4F24918A599D4FFC018491882321
:10041000D1F090E0880F991FFC01E85BFD4FA5919A
:10042000B491FC01EE5AFD4FC591D49161110EC0FB
:100430009FB7F8948C91E22FE0958E238C932881BE
:10044000E223E8839FBFDF91CF9108958FB7F8949F
:10045000EC91E22BEC938FBFF6CF8E3008F08E50EC
:100460008770806480937C0080917A0080648093A0
:100470007A0080917A0086FDFCCF8091780090917F
:10048000790008953FB7F8948091CD019091CE0105
:10049000A091CF01B091D00126B5A89B05C02F3FF8
:1004A00019F00196A11DB11D3FBFBA2FA92F982F9A
:1004B0008827BC01CD01620F711D811D911D42E095
:1004C000660F771F881F991F4A95D1F708958F925D
:1004D0009F92AF92BF92CF92DF92EF92FF924B0129
:1004E0005C010E9442026B017C010E9442026C1975
:1004F0007D098E099F09683E734081059105A8F327
:1005000021E0821A9108A108B10888EEC80E83E0A4
:10051000D81EE11CF11C81149104A104B10429F737
:10052000FF90EF90DF90CF90BF90AF909F908F9013
:100530000895AF92BF92CF92DF92EF92FF920F9306
:100540001F93CF93DF936C017B018B01040F151F69
:10055000EB015E01AE18BF08C017D10759F06991D1
:10056000D601ED91FC910190F081E02DC601099535
:10057000892B79F7C501DF91CF911F910F91FF90E2
:10058000EF90DF90CF90BF90AF900895FC01538D16
:10059000448D252F30E0842F90E0821B930B54175D
:1005A00010F0CF96089501970895FC01918D828DEA
:1005B000981761F0A28DAE0FBF2FB11D5D968C9183
:1005C000928D9F5F9F73928F90E008958FEF9FEFC2
:1005D0000895FC01918D828D981731F0828DE80F7E
:1005E000F11D858D90E008958FEF9FEF0895FC0138
:1005F000918D228D892F90E0805C9F4F821B910905
:100600008F739927089581ED91E00E94F70221E010
:10061000892B09F420E0822F089580E090E0892B57
:1006200029F00E94030381110C9400000895FC013D
:10063000A48DA80FB92FB11DA35ABF4F2C91848D43
:1006400090E001968F739927848FA689B7892C93A0
:10065000A089B1898C91837080648C93938D848DF3
:10066000981306C00288F389E02D80818F7D8083F6
:100670000895EF92FF920F931F93CF93DF93EC01B6
:1006800081E0888F9B8D8C8D98131AC0E889F98939
:10069000808185FF15C09FB7F894EE89FF8960833C
:1006A000E889F98980818370806480839FBF81E0BD
:1006B00090E0DF91CF911F910F91FF90EF900895FF
:1006C000F62E0B8D10E00F5F1F4F0F731127E02EDA
:1006D0008C8D8E110CC00FB607FCFACFE889F98912
:1006E000808185FFF5CFCE010E941703F1CFEB8DFE
:1006F000EC0FFD2FF11DE35AFF4FF0829FB7F894E6
:100700000B8FEA89FB8980818062CFCFCF93DF9303
:10071000EC01888D8823B9F0AA89BB89E889F98919
:100720008C9185FD03C0808186FD0DC00FB607FC4E
:10073000F7CF8C9185FFF2CF808185FFEDCFCE0181
:100740000E941703E9CFDF91CF910895089590E0BB
:1007500080E00895FB0101900020E9F73197AF0197
:10076000461B570BDC01ED91FC910280F381E02DDB
:1007700009948F929F92AF92BF92EF92FF920F9344
:100780001F93CF93DF93CDB7DEB7A1970FB6F89441
:10079000DEBF0FBECDBF7C01FA01CB0119A2223012
:1007A00008F42AE08E010F5D1F4F822E912CB12C90
:1007B000A12CBF01A50194010E94B50EF901CA0147
:1007C0006A300CF5605DD8016E938D01232B242BCC
:1007D000252B79F790E080E0109721F0BD01C7014B
:1007E0000E94AA03A1960FB6F894DEBF0FBECDBF3C
:1007F000DF91CF911F910F91FF90EF90BF90AF903D
:100800009F908F900895695CDECF0C94AA032F927D
:100810003F924F925F926F927F928F929F92AF9290
:10082000BF92CF92DF92EF92FF921F93CF93DF930D
:10083000EC016A017B01722EAB019601CB01B6017E
:100840000E94900E6EE171E0811126C046015701B1
:10085000E894B7F82FEF3FEF4FE75FE7C501B4012A
:100860000E94900E81110CC02FEF3FEF4FE75FE722
:10087000C501B4010E94C60C62E271E0181664F072
:100880002FEF3FEF4FE75FE4C701B6010E941E0E56
:100890001816B4F466E271E0CE01DF91CF911F919A
:1008A000FF90EF90DF90CF90BF90AF909F908F9090
:1008B0007F906F905F904F903F902F900C94AA0381
:1008C0002FEF3FEF4FE75FECC701B6010E94C60C68
:1008D00087FDE0CF20E030E0A901C701B6010E940A
:1008E000C60C312C212C87FF0DC0E881F9810190C5
:1008F000F081E02D6DE2CE0109951C01F7FAF0942C
:10090000F7F8F09410E060E070E080E09FE371168B
:1009100041F020E030E040E251E40E94CB0C1F5F48
:10092000F6CFA70196010E945A0C2B013C010E94B0
:100930003D0D4B015C012AE0BC01A401CE010E94E7
:10094000B9037C01E20CF31C1123E1F1C501B401F0
:100950000E946C0D9B01AC01C301B2010E94590CB5
:100960004B015C01E881F9810190F081E02D6EE29C
:10097000CE010995E80EF91E115020F120E030E07B
:1009800040E251E4C501B4010E94230E2B013C0159
:100990000E943D0D4B01B12CA12C2AE0B501A40110
:1009A000CE010E94B903E80EF91EC501B4010E94F0
:1009B0006C0D9B01AC01C301B2010E94590C4B01AB
:1009C0005C01DACFC701DF91CF911F91FF90EF90CB
:1009D000DF90CF90BF90AF909F908F907F906F905F
:1009E0005F904F903F902F900895CF93DF93AB018E
:1009F000BC0122E081ED91E00E940704EC016AE273
:100A000071E081ED91E00E94AA038C0F9D1FDF91A0
:100A1000CF91089522E00C940704EF92FF920F9378
:100A20001F93CF93DF93EC01042F8E810E94CE01A0
:100A300060E088850E94CE01FC80ED8018E0602F88
:100A4000661F6627661F8E2D0E94CE01000F61E093
:100A50008F2D0E94CE0160E08F2D0E94CE0111509B
:100A600071F761E08885DF91CF911F910F91FF9021
:100A7000EF900C94CE01CF93DF93262FCEE6D2E0F9
:100A80006A850E94950E492F9C87822F90E06B8586
:100A900029E3629F612D1124669570E06F5F7F4F9F
:100AA0000E94A10E8D87406860E0CE010E940D0576
:100AB0004D85406460E0CE01DF91CF910C940D052F
:100AC000CF92DF92EF92FF920F931F93CF93DF931A
:100AD00000D000D01F92CDB7DEB767FD6BC07C01A0
:100AE000862F90E0603208F455C0809725E0289F5B
:100AF000B001299F700D112468597F4F45E050E0E7
:100B0000CE0101960E94500C8E010F5F1F4F6801AD
:100B100085E0C80ED11CF80141918F01F70186854F
:100B20008111409561E0C7010E940D050C151D055E
:100B300091F7F7014685419561E0C7010E940D05D7
:100B4000F701848590E00696628570E00E94A10E10
:100B50008487892B79F4858590E00196638529E364
:100B6000629F612D1124669570E06F5F7F4F0E9438
:100B7000A10E858781E090E00F900F900F900F906D
:100B80000F90DF91CF911F910F91FF90EF90DF9029
:100B9000CF900895880F991FF701E80FF91F078577
:100BA00010890115110509F0B2CF45E050E068E663
:100BB00070E0A6CF90E080E0DFCF1F920F920FB6DB
:100BC0000F9211242F933F938F939F93AF93BF93D3
:100BD0008091C9019091CA01A091CB01B091CC0143
:100BE0003091C80123E0230F2D3758F50196A11D40
:100BF000B11D2093C8018093C9019093CA01A093AD
:100C0000CB01B093CC018091CD019091CE01A09108
:100C1000CF01B091D0010196A11DB11D8093CD01EE
:100C20009093CE01A093CF01B093D001BF91AF912B
:100C30009F918F913F912F910F900FBE0F901F901A
:100C4000189526E8230F0296A11DB11DD2CF1F9241
:100C50000F920FB60F9211242F933F934F935F93F0
:100C60006F937F938F939F93AF93BF93EF93FF9374
:100C700081ED91E00E941703FF91EF91BF91AF9139
:100C80009F918F917F916F915F914F913F912F91A4
:100C90000F900FBE0F901F9018951F920F920FB6D6
:100CA0000F9211242F938F939F93EF93FF93E091D3
:100CB000E101F091E2018081E091E701F091E8012A
:100CC00082FD1BC090818091EA018F5F8F7320911C
:100CD000EB01821741F0E091EA01F0E0EF52FE4FA4
:100CE000958F8093EA01FF91EF919F918F912F91C2
:100CF0000F900FBE0F901F9018958081F4CFE1EDFB
:100D0000F1E01382128288EE93E0A0E0B0E08483E9
:100D10009583A683B78384E091E09183808385ECFB
:100D200090E09587848784EC90E09787868780ECB5
:100D300090E0918B808B81EC90E0938B828B82ECA6
:100D400090E0958B848B86EC90E0978B868B118E50
:100D5000128E138E148EEEE6F2E01382128286E17A
:100D600091E09183808383E0848384E0858385E0C0
:100D7000868386E0878387E0808716860895789447
:100D800084B5826084BD84B5816084BD85B5826090
:100D900085BD85B5816085BD80916E008160809341
:100DA0006E001092810080918100826080938100AA
:100DB00080918100816080938100809180008160BA
:100DC000809380008091B10084608093B100809115
:100DD000B00081608093B00080917A00846080933D
:100DE0007A0080917A00826080937A0080917A0004
:100DF000816080937A0080917A00806880937A0085
:100E00001092C10060E082E00E94FC0160E083E09B
:100E10000E94FC0160E082E00E94FC0160E081E051
:100E20000E94FC0160E080E00E94FC0160E088E03C
:100E30000E94FC0160E089E00E94FC0160E08AE021
:100E40000E94FC0160E08BE00E94FC0184E580933D
:100E5000780280E3809379021092770210927A02EE
:100E600010927B02EDE7F2E080E4DF011D928A95AB
:100E7000E9F761E0809172020E94FC0161E08091DB
:100E800073020E94FC0161E0809174020E94FC01E7
:100E900061E0809175020E94FC0161E08091760220
:100EA0000E94FC0161E0809175020E94CE0161E028
:100EB000809176020E94CE0160E0809175020E94CE
:100EC000CE0164E670E080E090E00E94670261E09D
:100ED000809175020E94CE0141E260E08EE692E0D0
:100EE0000E940D0543E160E08EE692E00E940D0550
:100EF0008091770242EC813039F440EE60E08EE67A
:100F000092E00E940D0545E060E08EE692E00E94CE
:100F10000D0540E260E08EE692E00E940D0549E09A
:100F200060E08EE692E00E940D0560E080E00E94A5
:100F30003B05D0E0C0E08091790286958695869544
:100F400090917802899FC0011124C817D90740F4F5
:100F500040E061E08EE692E00E940D052196EBCF25
:100F600060E080E00E943B0548E060E08EE692E0B1
:100F70000E940D054CE060E08EE692E00E940D05B7
:100F800064E670E080E090E00E94670240E860E084
:100F90008EE692E00E940D0540E460E08EE692E06D
:100FA0000E940D056DE271E08EE692E00E9405045C
:100FB00061E08FE00E943B0568E371E08EE692E01D
:100FC0000E94050461E08CE00E94FC0161E08DE07C
:100FD0000E94FC0161E082E10E94FC0161E083E18A
:100FE0000E94FC01E091E101F091E20182E0808346
:100FF000E091DD01F091DE011082E091DF01F091DE
:10100000E0018FEC80831092E901E091E501F0911D
:10101000E60186E08083E091E301F091E4018081C4
:1010200080618083E091E301F091E4018081886038
:101030008083E091E301F091E40180818068808306
:10104000E091E301F091E40180818F7D8083C0E035
:10105000D0E088E00E94A501182F8093C70182E0AC
:101060000E94A5015C0183E00E942D02BC01990F42
:10107000880B990B0E946E0D29EC36E740EA50E48C
:101080000E94230E20E030E040E85AE30E94230E45
:101090002BEA3AEA4AE25EE30E94CB0C6B017C0148
:1010A000C092C301D092C401E092C501F092C60182
:1010B000AB2809F075C2111195C120E030E040EC79
:1010C00051E40E941E0E61E018160CF060E08CE006
:1010D0000E94CE0162E08CE00E943B0562E471E078
:1010E0008EE692E00E9405044091C3015091C40134
:1010F0006091C5017091C6018EE692E00E940A05DA
:1011000068E471E081ED91E00E9405046091C30103
:101110007091C4018091C5019091C6010E94F504AF
:1011200064EF71E080E090E00E94670289E00E9435
:10113000A501182F8093BE0182E00E94A5015C01E9
:1011400082E00E942D02BC01990F880B990B0E942E
:101150006E0D29EC36E740EA50E40E94230E20E0B1
:1011600030E040E85AE30E94230E2BEA3AEA4AE2D2
:101170005EE30E94CB0C6B017C01C092BA01D0925D
:10118000BB01E092BC01F092BD01AB2809F050C256
:1011900011115FC120E030E040EC51E40E941E0ECE
:1011A00061E018160CF060E08DE00E94CE0163E073
:1011B0008CE00E943B0564E571E08EE692E00E94BF
:1011C00005044091BA015091BB016091BC0170913E
:1011D000BD018EE692E00E940A0569E571E081EDAD
:1011E00091E00E9405046091BA017091BB01809169
:1011F000BC019091BD010E94F50464EF71E080E0B4
:1012000090E00E9467028AE00E94A501182F809357
:10121000B50182E00E94A5015C0181E00E942D02DF
:10122000BC01990F880B990B0E946E0D29EC36E7D3
:1012300040EA50E40E94230E20E030E040E85AE308
:101240000E94230E2BEA3AEA4AE25EE30E94CB0CAC
:101250006B017C01C092B101D092B201E092B30166
:10126000F092B401AB2809F02CC2111129C120E081
:1012700030E040EC51E40E941E0E61E018160CF0C4
:1012800060E082E10E94CE0164E08CE00E943B05B8
:1012900065E671E08EE692E00E9405044091B1019E
:1012A0005091B2016091B3017091B4018EE692E069
:1012B0000E940A056AE671E081ED91E00E94050452
:1012C0006091B1017091B2018091B3019091B4012C
:1012D0000E94F50464EF71E080E090E00E946702F4
:1012E0008BE00E94A501182F8093AC0182E00E9440
:1012F000A5015C0180E00E942D02BC01990F880BC2
:10130000990B0E946E0D29EC36E740EA50E40E94EA
:10131000230E20E030E040E85AE30E94230E2BEA3F
:101320003AEA4AE25EE30E94CB0C6B017C01C09278
:10133000A801D092A901E092AA01F092AB01AB28DA
:1013400009F008C21111F3C020E030E040EC51E494
:101350000E941E0E61E018160CF060E083E10E940E
:10136000CE0165E08CE00E943B0566E771E08EE609
:1013700092E00E9405044091A8015091A90160915A
:10138000AA017091AB018EE692E00E940A056BE71C
:1013900071E081ED91E00E94050420E030E040EA38
:1013A00050E46091A8017091A9018091AA019091E7
:1013B000AB010E94230EAB01BC0181ED91E00E94C4
:1013C0000A0564EF71E080E090E00E9467022097D8
:1013D00009F43FCE0E940303882309F43ACE0E9409
:1013E000000037CE113009F0A1CE20E030E040EC13
:1013F00051E40E941E0E61E018160CF060E08CE0D3
:101400000E94CE0162E08CE00E943B0568E471E03E
:101410008EE692E00E9405044091C3015091C40100
:101420006091C5017091C60170588EE692E00E94ED
:101430000A0568E471E081ED91E00E940504609185
:10144000C3017091C4018091C5019091C60190586B
:1014500065CE113009F0D7CE20E030E040EC51E409
:101460000E941E0E61E018160CF060E08DE00E94F4
:10147000CE0163E08CE00E943B0569E571E08EE6F9
:1014800092E00E9405044091BA015091BB01609125
:10149000BC017091BD0170588EE692E00E940A0571
:1014A00069E571E081ED91E00E9405046091BA0167
:1014B0007091BB018091BC019091BD0190589BCE71
:1014C000113009F00DCF20E030E040EC51E40E94F3
:1014D0001E0E61E018160CF060E082E10E94CE0161
:1014E00064E08CE00E943B056AE671E08EE692E0E3
:1014F0000E9405044091B1015091B2016091B30185
:101500007091B40170588EE692E00E940A056AE676
:1015100071E081ED91E00E9405046091B10170914C
:10152000B2018091B3019091B4019058D1CE1130A5
:1015300009F04DCF20E030E040EC51E40E941E0E57
:1015400061E018160CF060E083E10E94CE0165E0D6
:101550008CE00E943B056BE771E08EE692E00E9412
:1015600005044091A8015091A9016091AA017091D0
:10157000AB0170588EE692E00E940A056BE771E0BD
:1015800081ED91E00E9405046091A8017091A9018C
:101590008091AA019091AB0190580E94F50411CF5F
:1015A0002091BF013091C0014091C1015091C20111
:1015B0000E941E0E1816ECF4C092BF01D092C0011A
:1015C000E092C101F092C20121E834E045E35FE31B
:1015D000C701B6010E94230E20E030E048E851E444
:1015E0000E941E0E61E018160CF060E08CE00E9474
:1015F000CE0162E08CE00E943B056CE471E08EE677
:1016000092E00E94050421E834E045E35FE3609145
:10161000BF017091C0018091C1019091C2010E94EF
:10162000230EAB01BC018EE692E00E940A057ECD3E
:101630002091B6013091B7014091B8015091B901A4
:101640000E941E0E18160CF0DECDC092B601D0928C
:10165000B701E092B801F092B90121E834E045E326
:101660005FE3C701B6010E94230E20E030E048E8A6
:1016700051E40E941E0E61E018160CF060E08DE04F
:101680000E94CE0163E08CE00E943B056DE571E0B5
:101690008EE692E00E94050421E834E045E35FE332
:1016A0006091B6017091B7018091B8019091B90134
:1016B0000E94230EAB01BC018EE692E00E940A0557
:1016C000A2CD2091AD013091AE014091AF0150917A
:1016D000B0010E941E0E18160CF002CEC092AD0191
:1016E000D092AE01E092AF01F092B00121E834E077
:1016F00045E35FE3C701B6010E94230E20E030E01E
:1017000048E851E40E941E0E61E018160CF060E0FB
:1017100082E10E94CE0164E08CE00E943B056EE60F
:1017200071E08EE692E00E94050421E834E045E392
:101730005FE36091AD017091AE018091AF01909136
:10174000B0010E94230EAB01BC018EE692E00E9424
:101750000A05C6CD2091A4013091A5014091A601B2
:101760005091A7010E941E0E18161CF5C092A401EC
:10177000D092A501E092A601F092A70121E834E001
:1017800045E35FE3C701B6010E94230E20E030E08D
:1017900048E851E40E941E0E61E018160CF060E06B
:1017A00083E10E94CE0164EF71E080E090E00E944E
:1017B000670265E08CE00E943B056FE771E08EE612
:1017C00092E00E94050421E834E045E35FE3609184
:1017D000A4017091A5018091A6019091A7010E949A
:1017E000230EAB01BC018EE692E00E940A0567E879
:1017F00071E081ED91E00E94050423EF34E045EBB8
:101800005FE36091BF017091C0018091C10190912F
:10181000C2010E94CB0C0E94F5046EE871E081EDDC
:1018200091E00E94050421E834E045E35FE3609124
:10183000B6017091B7018091B8019091B9010E94F1
:10184000230E0E94F50465E971E081ED91E00E94AC
:10185000050421E834E045E35FE36091AD01709158
:10186000AE018091AF019091B0010E94230E0E94C1
:10187000F5046CE971E081ED91E00E94050421E836
:1018800034E045E35FE36091A4017091A50180918C
:10189000A6019091A7010E94230E0E94F50497CD06
:1018A000FB01DC0102C005900D9241505040D8F779
:1018B00008955058BB27AA270E94710C0C94E40D80
:1018C0000E94D60D38F00E94DD0D20F039F49F3FC4
:1018D00019F426F40C94D30D0EF4E095E7FB0C9468
:1018E000CD0DE92F0E94F50D58F3BA176207730763
:1018F0008407950720F079F4A6F50C94170E0EF4E2
:10190000E0950B2EBA2FA02D0B01B90190010C010F
:10191000CA01A0011124FF27591B99F0593F50F427
:10192000503E68F11A16F040A22F232F342F44277F
:10193000585FF3CF469537952795A795F040539577
:10194000C9F77EF41F16BA0B620B730B840BBAF047
:101950009150A1F0FF0FBB1F661F771F881FC2F7B2
:101960000EC0BA0F621F731F841F48F487957795C6
:101970006795B795F7959E3F08F0B0CF9395880F80
:1019800008F09927EE0F9795879508950E94A90D65
:1019900008F481E008950E94DF0C0C94E40D0E948D
:1019A000DD0D58F00E94D60D40F029F45F3F29F07C
:1019B0000C94CD0D51110C94180E0C94D30D0E9463
:1019C000F50D68F39923B1F3552391F3951B550B4E
:1019D000BB27AA2762177307840738F09F5F5F4F02
:1019E000220F331F441FAA1FA9F335D00E2E3AF041
:1019F000E0E832D091505040E695001CCAF72BD059
:101A0000FE2F29D0660F771F881FBB1F26173707A9
:101A10004807AB07B0E809F0BB0B802DBF01FF27DB
:101A200093585F4F3AF09E3F510578F00C94CD0DDE
:101A30000C94180E5F3FE4F3983ED4F386957795A7
:101A40006795B795F7959F5FC9F7880F911D969594
:101A5000879597F90895E1E0660F771F881FBB1FF0
:101A6000621773078407BA0720F0621B730B840B9D
:101A7000BA0BEE1F88F7E09508950E94FD0D88F0DF
:101A80009F5798F0B92F9927B751B0F0E1F0660F42
:101A9000771F881F991F1AF0BA95C9F714C0B13083
:101AA00091F00E94170EB1E008950C94170E672F65
:101AB000782F8827B85F39F0B93FCCF386957795B2
:101AC0006795B395D9F73EF490958095709561959B
:101AD0007F4F8F4F9F4F0895E89409C097FB3EF4C6
:101AE00090958095709561957F4F8F4F9F4F99236B
:101AF000A9F0F92F96E9BB279395F69587957795E9
:101B00006795B795F111F8CFFAF4BB0F11F460FFA8
:101B10001BC06F5F7F4F8F4F9F4F16C0882311F000
:101B200096E911C0772321F09EE8872F762F05C014
:101B3000662371F096E8862F70E060E02AF09A95AF
:101B4000660F771F881FDAF7880F9695879597F9A4
:101B50000895990F0008550FAA0BE0E8FEEF16163E
:101B60001706E807F907C0F012161306E407F50791
:101B700098F0621B730B840B950B39F40A2661F005
:101B8000232B242B252B21F408950A2609F4A140A8
:101B9000A6958FEF811D811D089597F99F6780E8B5
:101BA00070E060E008959FEF80EC089500240A94AF
:101BB0001616170618060906089500240A94121628
:101BC0001306140605060895092E0394000C11F45B
:101BD000882352F0BB0F40F4BF2B11F460FF04C008
:101BE0006F5F7F4F8F4F9F4F089557FD9058440F61
:101BF000551F59F05F3F71F04795880F97FB991F6C
:101C000061F09F3F79F08795089512161306140628
:101C1000551FF2CF4695F1DF08C0161617061806B5
:101C2000991FF1CF86957105610508940895E89490
:101C3000BB2766277727CB0197F908950E94A90D46
:101C400008F48FEF08950E94360E0C94E40D0E9464
:101C5000D60D38F00E94DD0D20F0952311F00C9484
:101C6000CD0D0C94D30D11240C94180E0E94F50D7B
:101C700070F3959FC1F3950F50E0551F629FF001DF
:101C8000729FBB27F00DB11D639FAA27F00DB11DF8
:101C9000AA1F649F6627B00DA11D661F829F222781
:101CA000B00DA11D621F739FB00DA11D621F839F08
:101CB000A00D611D221F749F3327A00D611D231FDE
:101CC000849F600D211D822F762F6A2F11249F572C
:101CD00050409AF0F1F088234AF0EE0FFF1FBB1F2F
:101CE000661F771F881F91505040A9F79E3F5105EE
:101CF00080F00C94CD0D0C94180E5F3FE4F3983EE9
:101D0000D4F3869577956795B795F795E7959F5F97
:101D1000C1F7FE2B880F911D9695879597F9089529
:101D20000E94A90D880B990B0895991B79E004C0B6
:101D3000991F961708F0961B881F7A95C9F780950A
:101D4000089597FB072E16F4009407D077FD09D06D
:101D50000E94D70E07FC05D03EF4909581959F4FC9
:101D60000895709561957F4F0895A1E21A2EAA1BE0
:101D7000BB1BFD010DC0AA1FBB1FEE1FFF1FA2173B
:101D8000B307E407F50720F0A21BB30BE40BF50B38
:101D9000661F771F881F991F1A9469F760957095C1
:101DA000809590959B01AC01BD01CF010895AA1BC0
:101DB000BB1B51E107C0AA1FBB1FA617B70710F036
:101DC000A61BB70B881F991F5A95A9F78095909568
:101DD000BC01CD010895EE0FFF1F0590F491E02D99
:061DE0000994F894FFCF06
:101DE6000000000039039902C6028603F702D502F5
:101DF600E9020000000060059902A703A6036E61D0
:101E06006E00696E66006F7666000D0A00566F6C8E
:101E160074696D6574726F0043616E616C657320E1
:101E260034005631203D20005631200056312052D4
:101E36004D533A0056323D2000563220005632208D
:101E4600524D533A0056333D200056332000563348
:101E560020524D533A0056343D2000563420005649
:101E66003420726D733A0056726D733120005672CB
:101E76006D7332200056726D7333200056726D7387
:041E86003420000004
:00000001FF
